{
  "_format": "hh-sol-artifact-1",
  "contractName": "ResearchData",
  "sourceName": "contracts/ResearchDataContract.sol",
  "abi": [
    {
      "inputs": [],
      "name": "getRData",
      "outputs": [
        {
          "components": [
            {
              "internalType": "address",
              "name": "userAddress",
              "type": "address"
            },
            {
              "internalType": "string",
              "name": "dataId",
              "type": "string"
            },
            {
              "internalType": "string",
              "name": "name",
              "type": "string"
            },
            {
              "internalType": "string",
              "name": "data",
              "type": "string"
            },
            {
              "internalType": "string",
              "name": "fileHash",
              "type": "string"
            },
            {
              "internalType": "uint256",
              "name": "timestamp",
              "type": "uint256"
            }
          ],
          "internalType": "struct Test.RData[]",
          "name": "",
          "type": "tuple[]"
        }
      ],
      "stateMutability": "view",
      "type": "function"
    },
    {
      "inputs": [
        {
          "internalType": "string",
          "name": "dataId",
          "type": "string"
        },
        {
          "internalType": "string",
          "name": "name",
          "type": "string"
        },
        {
          "internalType": "string",
          "name": "data",
          "type": "string"
        },
        {
          "internalType": "string",
          "name": "fileHash",
          "type": "string"
        }
      ],
      "name": "shareData",
      "outputs": [],
      "stateMutability": "nonpayable",
      "type": "function"
    }
  ],
  "bytecode": "0x608060405234801561001057600080fd5b50610cb6806100206000396000f3fe608060405234801561001057600080fd5b50600436106100365760003560e01c806399f7d70f1461003b578063b9af35b214610057575b600080fd5b6100556004803603810190610050919061061e565b610075565b005b61005f6102a8565b60405161006c9190610951565b60405180910390f35b60006040518060c001604052803373ffffffffffffffffffffffffffffffffffffffff1681526020018a8a8080601f016020809104026020016040519081016040528093929190818152602001838380828437600081840152601f19601f82011690508083019250505050505050815260200188888080601f016020809104026020016040519081016040528093929190818152602001838380828437600081840152601f19601f82011690508083019250505050505050815260200186868080601f016020809104026020016040519081016040528093929190818152602001838380828437600081840152601f19601f82011690508083019250505050505050815260200184848080601f016020809104026020016040519081016040528093929190818152602001838380828437600081840152601f19601f82011690508083019250505050505050815260200142815250908060018154018082558091505060019003906000526020600020906006020160009091909190915060008201518160000160006101000a81548173ffffffffffffffffffffffffffffffffffffffff021916908373ffffffffffffffffffffffffffffffffffffffff160217905550602082015181600101908161024f9190610bae565b5060408201518160020190816102659190610bae565b50606082015181600301908161027b9190610bae565b5060808201518160040190816102919190610bae565b5060a0820151816005015550505050505050505050565b60606000805480602002602001604051908101604052809291908181526020016000905b828210156105a657838290600052602060002090600602016040518060c00160405290816000820160009054906101000a900473ffffffffffffffffffffffffffffffffffffffff1673ffffffffffffffffffffffffffffffffffffffff1673ffffffffffffffffffffffffffffffffffffffff168152602001600182018054610355906109d1565b80601f0160208091040260200160405190810160405280929190818152602001828054610381906109d1565b80156103ce5780601f106103a3576101008083540402835291602001916103ce565b820191906000526020600020905b8154815290600101906020018083116103b157829003601f168201915b505050505081526020016002820180546103e7906109d1565b80601f0160208091040260200160405190810160405280929190818152602001828054610413906109d1565b80156104605780601f1061043557610100808354040283529160200191610460565b820191906000526020600020905b81548152906001019060200180831161044357829003601f168201915b50505050508152602001600382018054610479906109d1565b80601f01602080910402602001604051908101604052809291908181526020018280546104a5906109d1565b80156104f25780601f106104c7576101008083540402835291602001916104f2565b820191906000526020600020905b8154815290600101906020018083116104d557829003601f168201915b5050505050815260200160048201805461050b906109d1565b80601f0160208091040260200160405190810160405280929190818152602001828054610537906109d1565b80156105845780601f1061055957610100808354040283529160200191610584565b820191906000526020600020905b81548152906001019060200180831161056757829003601f168201915b50505050508152602001600582015481525050815260200190600101906102cc565b50505050905090565b600080fd5b600080fd5b600080fd5b600080fd5b600080fd5b60008083601f8401126105de576105dd6105b9565b5b8235905067ffffffffffffffff8111156105fb576105fa6105be565b5b602083019150836001820283011115610617576106166105c3565b5b9250929050565b6000806000806000806000806080898b03121561063e5761063d6105af565b5b600089013567ffffffffffffffff81111561065c5761065b6105b4565b5b6106688b828c016105c8565b9850985050602089013567ffffffffffffffff81111561068b5761068a6105b4565b5b6106978b828c016105c8565b9650965050604089013567ffffffffffffffff8111156106ba576106b96105b4565b5b6106c68b828c016105c8565b9450945050606089013567ffffffffffffffff8111156106e9576106e86105b4565b5b6106f58b828c016105c8565b92509250509295985092959890939650565b600081519050919050565b600082825260208201905092915050565b6000819050602082019050919050565b600073ffffffffffffffffffffffffffffffffffffffff82169050919050565b600061075e82610733565b9050919050565b61076e81610753565b82525050565b600081519050919050565b600082825260208201905092915050565b60005b838110156107ae578082015181840152602081019050610793565b60008484015250505050565b6000601f19601f8301169050919050565b60006107d682610774565b6107e0818561077f565b93506107f0818560208601610790565b6107f9816107ba565b840191505092915050565b6000819050919050565b61081781610804565b82525050565b600060c0830160008301516108356000860182610765565b506020830151848203602086015261084d82826107cb565b9150506040830151848203604086015261086782826107cb565b9150506060830151848203606086015261088182826107cb565b9150506080830151848203608086015261089b82826107cb565b91505060a08301516108b060a086018261080e565b508091505092915050565b60006108c7838361081d565b905092915050565b6000602082019050919050565b60006108e782610707565b6108f18185610712565b93508360208202850161090385610723565b8060005b8581101561093f578484038952815161092085826108bb565b945061092b836108cf565b925060208a01995050600181019050610907565b50829750879550505050505092915050565b6000602082019050818103600083015261096b81846108dc565b905092915050565b7f4e487b7100000000000000000000000000000000000000000000000000000000600052604160045260246000fd5b7f4e487b7100000000000000000000000000000000000000000000000000000000600052602260045260246000fd5b600060028204905060018216806109e957607f821691505b6020821081036109fc576109fb6109a2565b5b50919050565b60008190508160005260206000209050919050565b60006020601f8301049050919050565b600082821b905092915050565b600060088302610a647fffffffffffffffffffffffffffffffffffffffffffffffffffffffffffffffff82610a27565b610a6e8683610a27565b95508019841693508086168417925050509392505050565b6000819050919050565b6000610aab610aa6610aa184610804565b610a86565b610804565b9050919050565b6000819050919050565b610ac583610a90565b610ad9610ad182610ab2565b848454610a34565b825550505050565b600090565b610aee610ae1565b610af9818484610abc565b505050565b5b81811015610b1d57610b12600082610ae6565b600181019050610aff565b5050565b601f821115610b6257610b3381610a02565b610b3c84610a17565b81016020851015610b4b578190505b610b5f610b5785610a17565b830182610afe565b50505b505050565b600082821c905092915050565b6000610b8560001984600802610b67565b1980831691505092915050565b6000610b9e8383610b74565b9150826002028217905092915050565b610bb782610774565b67ffffffffffffffff811115610bd057610bcf610973565b5b610bda82546109d1565b610be5828285610b21565b600060209050601f831160018114610c185760008415610c06578287015190505b610c108582610b92565b865550610c78565b601f198416610c2686610a02565b60005b82811015610c4e57848901518255600182019150602085019450602081019050610c29565b86831015610c6b5784890151610c67601f891682610b74565b8355505b6001600288020188555050505b50505050505056fea26469706673582212209da1fda9cdf8633af0692b872aebcb1ed62fbe1027ff774724d3bec35568a85064736f6c63430008110033",
  "linkReferences": {},
  "deployedLinkReferences": {}
}